:100003003A323030382F3500C0EE010001007FFC5A
:10001300038005400930310EDFE4008001007FFEDC
:1000230001000100010005000200DDBC0440FFFEE9
:1000330005403FF801001FF00100FFFE00001FF024
:1000430010101FF010101FF010101030B4A810047F
:1000530010841084108410841084108410841084FD
:100063001084108410841084208420044000B4F889
:10007300091009107FFE091009107FFE4104810851
:100083001FF0111011101110115011200100010067
:10009300CEC2400027F0241007F09410541017F03C
:1000A30020002FFCC92449244924492449245FFE04
:1000B3004000B6C8010000803FFE222022202FFC12
:1000C300222023E0200027F82210212020C04130E5
:1000D300460E9804B4AB1040184817FC204020800B
:1000E3006084AFFE2080210823FC2008211020A07B
:1000F300204020200000B8D0005000483FFC2040A2
:100103003F4820482F3029204F32404A80060908B3
:100113002884281667F00000C6F73E7C2244224458
:100123003E7C01100108FFFC06C01830E00E3EFCC7
:100133002288228822883EF80000B5C410801080EF
:1001430020807CFC4504450446047C844444446488
:10015300442444047C04442840100000CA000820BE
:1001630049302A201C20FF7E1C442B4448C4082805
:10017300FF28121034100C28324EC0840000D7D64A
:10018300020001003FFC200440081FE00040008003
:1001930001007FFE010001000100010005000200D3
:1001A300CABE00001FF80000000000007FFE01002F
:1001B3000100112011102108410C810401000500E8
:1001C3000200B2A820401040104007FE844454406F
:1001D300544017F825082490E49024602860289858
:1001E300310E2604C6F73E7C224422443E7C011095
:1001F3000108FFFC06C01830E00E3EFC228822886E
:1002030022883EF80000C9E8400021F03110211097
:1002130001100110E20E25F82108210820902090FA
:1002230028603090230E0C04BCC6402020203020D0
:1002330020200020F3FE102010201020102010207A
:1002430012201420182010200020D5DF01000108FF
:100253003FEC011001207FFE0080030007F81C081B
:10026300E40807F80408040807F80408320000004B
:10027300000000003C004200420042000400040071
:1002830008001000200042007E0000000000300043
:100293000000000000001800240042004200420059
:1002A3004200420042004200240018000000000007
:1002B300300000000000000018002400420042004B
:1002C30042004200420042004200240018000000A5
:1002D300000037000000000000007E0044004400DE
:1002E300080008001000100010001000100010009B
:1002F300000000003100000000000000100070004A
:10030300100010001000100010001000100010006A
:100313007C000000000032000000000000003C00F0
:1003230042004200420004000400080010002000C4
:1003330042007E00000000002F00000000000100CA
:10034300020002000400040008000800100010006E
:1003530020002000400040000000B5B10080109054
:1003630008980C9008A000803FFC000400041FFCC8
:100373000004000400043FFC00040000C7B00810A0
:1003830006180420FFFE00003E0822483E4822488B
:1003930022483E48224822482A0824280010CEC278
:1003A300400027F0241007F09410541017F0200099
:1003B3002FFCC92449244924492449245FFE4000D1
:1003C300B6C8010000803FFE222022202FFC2220FD
:1003D30023E0200027F82210212020C04130460EC0
:0203E30098047C
:0C05ED00EF4E6007EF1F70F81E80F52233
:1005B900C2A2D2A1D2A38F80C2A400D2A4D2A2C2C5
:0205C900A1226D
:1005CB00C2A2C2A1D2A38F80C2A400D2A4D2A2D2B3
:0205DB00A1225B
:10050000AF010985098285088375F022E50F120580
:1005100076A3A3E5822FF582E43583F583E493FD8A
:020520007FC09A
:0E052200AE05AD07AF061205CBAF050205B959
:1005A600AE07AC03AF051205CBAF041205CBAF0601
:0305B6000205B982
:10044D00C2A07FD07E071205EDD2A0E4FBFD7F4058
:10045D001205A67D107F411205A67B08FD7F421275
:10046D0005A6FB7D107F431205A67FA01205B97F5F
:0E047D00801205B97F921205B97F9F0205B962
:10053000E4FBFD7F241205A67FB01205B9FCE4FFA1
:100540001205CB0DBD00010CE4B505F2ECB420EEB4
:0D0550007FB21205B9E4FBFD7F240205A671
:02058200AC07C4
:10058400ED75F010A4AD047C002DFFEC35F0FEEB0E
:100594006007E42FFF74013EFEAD07AB067F240223
:0205A40005A6AA
:1005DD00AA03E4FB120582EA24E0FD7FC402052292
:1004C7008F088D098B0A8A0B890CAB0AAA0BA90C1A
:1004D70012055DFB6022E508D3940F4005E4F5089B
:1004E7000509AD09AF081205DD05087401250CF5EE
:0904F7000CE4350BF50B80D22258
:0C03E5008E088F098C0A8D0B8A0C8B0D82
:1003F100E50FC3950E5054E4F9E50DC4F8540FC848
:1004010068FFE50CC454F048FEE50B2FCFE50A3E2A
:10041100CF2400F511EF3408F510E4FAAD11E51021
:10042100FB7F241205A61205001205007410251188
:10043100F511E43510F5100ABA10E17402250BF537
:0B0441000BE4350AF50A050F0203F179
:01044C00228D
:10048B0012044D1205307E007F0B750E0A750F039B
:10049B00E4FBFAFDFC1203E57E007F0B750E127573
:1004AB000F0F7B127A007D017C001203E57BFF7A34
:0C04BB000079037D037F071204C780CA8C
:030000000205F9FD
:0C05F900787FE4F6D8FD75811302048BB6
:10055D00BB010689828A83E0225002E722BBFE029C
:09056D00E32289828A83E49322CF
:0C057600A42582F582E5F03583F5832290
:00000001FF
