:080003000102040810204080F6
:10008000758901758CB1758AE0D2A9D28CD2AF2264
:10000E00120080E510700F751005AF18E5A0F4F51D
:10001E00186F55186219E4FFEFC3940850E5EF907E
:10002E00000393FE5519600E74082FF8E67014EE57
:10003E0062907619800D74082FF8E4F6EF900003A5
:06004E009342900F80D2E6
:03000B000200549C
:0B005400C0E0C0D075D000C000C007A5
:10005F00C28C758CB1758AE0D28CE4FF74082FF8CE
:08006F00E66001160FBF10F45A
:09007700D007D000D0D0D0E03257
:030000000200906B
:0C009000787FE4F6D8FD75811902000E9F
:00000001FF
