:100036007FFA1201BE5387DFD2AED2BED2AF7B00AB
:100046007A007915751401E4FFFE120116E515C351
:1000560094FB4003E4F515E4FFFE1201A0C281E51E
:100066001575F06412017CE51575F06484E5F0758C
:10007600F00A12017CE51575F00A84E5F02430FFDC
:100086001201807F0D1201807F0A1201807FFA1211
:1000960001BE7FFA1201BE7FFA1201BE7FFA12017B
:0F00A600BE0515E515C394FB40B5E4F51580B014
:030033000200B513
:1000B500C0E0C0F0C083C082C0D075D000C000C011
:0D00C50001C002C003C004C005C006C00792
:1000D200C2807B007A007915750E01E4FFFE1201E1
:1000E20049E58730E5115387DF750800E508C394B9
:0900F2006450EE050880F5D2808F
:1000FB00D007D006D005D004D003D002D001D00059
:0B010B00D0D0D082D083D0F0D0E03202
:0F01BE007D2B7C06ED1D70011C144C70F7DFF1DA
:0101CD00220F
:0D01CE007FA37E00EF1F70011E144E70F71E
:0101DB002201
:04017C00842430FFA8
:02018000AD07C9
:10018200C2AFC2B11201CE7C08EDC313FD92B1120F
:0E01920001CEDCF5D2B1D2AF1201CE0201CE09
:0E01DC00E4F5C7F5C5F5C675C3FF75C4FF226F
:10011600AD07AC06C2AF75C78175C5018CC3AF0507
:100126008FC475C65A75C6A500E5C212001C0DBD62
:1001360000010C740129F9E43AFAD514DF1201DC46
:03014600D2AF2213
:1001A000AD07AC06C2AF8CC3AF058FC475C78175F0
:0E01B000C50375C65A75C6A51201DCD2AF2272
:10014900AD07AC06C2AF75C78175C5028CC3AF05D3
:100159008FC4120003F5C275C65A75C6A5000DBD38
:1001690000010C740129F9E43AFAD50EDF1201DC19
:03017900D2AF22E0
:030000000201EA10
:0C01EA00787FE4F6D8FD75811502003620
:10000300BB010689828A83E0225002E722BBFE02FB
:09001300E32289828A83E493222E
:10001C00BB010689828A83F0225002F722BBFE01C3
:02002C00F322BD
:00000001FF
