:10006800120003E4FFFE0FBF00010EBE05F8BFDC5F
:10007800F5E50960EED509EBE508601FE4FFEFC37D
:1000880095085017C20074002FF582E43400F583F8
:10009800E0F5993000FDC2000F80E3E4F50880C365
:100003004387807598505389BFE58954CF4420F5C1
:0B00130089758DF6D28ED2ACD2AF22E0
:03002300020026B2
:10002600C0E0C083C082C0D075D000C00730982021
:10003600C298E508C394804003750800AF08050818
:1000460074002FF582E43400F583E599F07509050F
:10005600309904C299D200D007D0D0D082D083D0B4
:02006600E03286
:030000000200A853
:0C00A800787FE4F6D8FD75812002006826
:00000001FF
