:0E01CC00E4F5C7F5C5F5C675C3FF75C4FF227F
:10011400AD07AC06C2AF75C78175C5018CC3AF0509
:100124008FC475C65A75C6A500E5C212001C0DBD64
:1001340000010C740129F9E43AFAD514DF1201CC58
:03014400D2AF2215
:10019E00AD07AC06C2AF8CC3AF058FC475C78175F2
:0E01AE00C50375C65A75C6A51201CCD2AF2284
:10014700AD07AC06C2AF75C78175C5028CC3AF05D5
:100157008FC4120003F5C275C65A75C6A5000DBD3A
:1001670000010C740129F9E43AFAD50EDF1201CC2B
:03017700D2AF22E2
:100036007FFA1201BC5387DFD2AED2BED2AF7B00AD
:100046007A007915751401E4FFFE120114E515C353
:1000560094FB4003E4F515E4FFFE12019EE51575D9
:10006600F06412017AE51575F06484E5F075F00A1E
:1000760012017AE51575F00A84E5F02430FF1201C5
:100086007E7F0D12017E7F0A12017E7FFA1201BC6D
:100096007FFA1201BC7FFA1201BC7FFA1201BC057D
:0D00A60015E515C394FB40B5E4F51580B0D9
:030033000200B315
:1000B300C0E0C0F0C083C082C0D075D000C000C013
:0D00C30001C002C003C004C005C006C00794
:1000D000C2807B007A007915750E01E4FFFE1201E3
:1000E00047E58730E5115387DF750800E508C394BD
:0900F0006450EE050880F5D28091
:1000F900D007D006D005D004D003D002D001D0005B
:0B010900D0D0D082D083D0F0D0E03204
:0F01BC007D2B7C06ED1D70011C144C70F7DFF1DC
:0101CB002211
:0D01DA007FA37E00EF1F70011E144E70F712
:0101E70022F5
:04017A00842430FFAA
:02017E00AD07CB
:10018000C2AFC2B11201DA7C08EDC313FD92B11205
:0E01900001DADCF5D2B1D2AF1201DA0201DAE7
:030000000201E812
:0C01E800787FE4F6D8FD75811502003622
:10000300BB010689828A83E0225002E722BBFE02FB
:09001300E32289828A83E493222E
:10001C00BB010689828A83F0225002F722BBFE01C3
:02002C00F322BD
:00000001FF
