:040216007F647E0083
:10021A00E4FDFCC3ED9FEC9E5015E4FBFA0BBB001A
:0F022A00010AEB64FA4A70F50DBD00010C80E487
:0102390022A2
:100270007E08EF30E704D2A38002C2A3C2A5D2A5B4
:06028000EF25E0FFDEECBB
:010286002255
:0A02B300C2A0C2A2120270D2A02263
:070287007F2A1202B3E4FF1D
:0C028E00E4F512C2A0D2A2120270D2A0AD
:01029A002241
:04025800AD07AC063C
:10025C00E4F50AC2A0D2A2AF04120270AF051202DA
:03026C0070D2A0AD
:01026F00226C
:0A02BD00C2A1120216D2A102021A19
:0C029B007F011202B37F787E0002021A7D
:100003001202BD7F111202B37F787E0012021A7FA3
:10001300B11202B37F0112028E7F2C12028E7F2D4A
:1000230012028E7FB21202B37F0112028E7F2C1254
:10003300028E7F2D12028E7FB31202B37F01120252
:100043008E7F2C12028E7F2D12028E7F0112028E62
:100053007F2C12028E7F2D12028E7FB41202B37F89
:100063000712028E7FC01202B37FA212028E7F029A
:1000730012028E7F8412028E7FC11202B37FC512D9
:10008300028E7FC21202B37F0A12028EE4FF1202B3
:100093008E7FC31202B37F8A12028E7F2A12028ED0
:1000A3007FC41202B37F8A12028E7FEE12028E7F0A
:1000B300C51202B37F0E12028E7F361202B37FC8BF
:1000C30012028E7FE01202B37F0F12028E7F1A128A
:1000D300028E7F0F12028E7F1812028E7F2F120262
:1000E3008E7F2812028E7F2012028E7F2212028EB2
:1000F3007F1F12028E7F1B12028E7F2312028E7FBE
:100103003712028EE4FF12028E7F0712028E7F02E5
:1001130012028E7F1012028E7FE11202B37F0F1242
:10012300028E7F1B12028E7F0F12028E7F17120226
:100133008E7F3312028E7F2C12028E7F2912028E43
:100143007F2E12028E7F3012028E7F3012028E7F3C
:100153003912028E7F3F12028EE4FF12028E7F0756
:1001630012028E7F0312028E7F1012028E120287FA
:100173007F0212028EE4FF12028E7F8212028E7FB2
:100183002B1202897F0312028EE4FF12028E7F83F9
:1001930012028E7FF01202B37F0112028E7FF612DB
:1001A30002897F3A1202B37F0512028E7F2902026F
:0101B300B398
:1001B4008F82120287AF82EF2402FF12028EE4FFC5
:1001C40012028EEB2402FF12028E7F2B120289EDA3
:1001D4002403FF12028EE4FF12028EE5112403FFB2
:0801E40012028E7F2C0202B30F
:0401EC008E088F09E1
:1001F00075100075117F7B7F7A00E4FDFCFFFE1215
:1002000001B4E4FBE4FAAF09AE081202580ABA805E
:05021000F50BBB80EFBF
:0102150022C6
:10023A00120003D2A41200037F007EF81201EC120E
:0E024A0002167FE07E071201EC12021680E71A
:030000000202A752
:0C02A700787FE4F6D8FD75811202023A5F
:00000001FF
