:10008F002A2A2A2A2A2A205354433132433532301E
:10009F00344144CFB5C1D0414443B3CCD0F2203228
:1000AF003031312D30322D3237202A2A2A2A2A2A6E
:0300BF000D0A0027
:100003008F0A8D0B7F411200C67F441200C6E50A9A
:100013002430FF1200C67F3D1200C6E50B75F06465
:100023001200C2E50B75F06484E5F075F00A120066
:10003300C2E50B75F00A84E5F02430FF1200C67F99
:090043000D1200C67F0A0200C67E
:10004C007E007F8F120122759D0175BCA07FFA1274
:10005C0001127FFA1201127FFA1201127FFA1201B9
:10006C0012E4FF1200F0E4FF1200F07508008F0993
:10007C00AD09E4FF1200037F0D1200C67F0A1200C7
:03008C00C680CA61
:1000F000E4F5BDE5BC54E044084FF5BCE4FFE5BCC5
:1001000030E40653BCEFAFBD220FBFFAF1DFFE7F34
:0101100000EE
:0101110022CB
:0F0112007D2B7C06ED1D70011C144C70F7DFF186
:0101210022BB
:0D0132007FA37E00EF1F70011E144E70F7BA
:01013F00229D
:0400C200842430FF63
:0200C600AD0784
:1000C800C2AFC2B1120132E4FCED30E004D2B1801B
:1000D80002C2B1EDC313FD1201320CBC08EBD2B160
:0800E800D2AF12013202013215
:100122008F828E83E493FF60061200C6A380F522BD
:03000000020140BA
:0C014000787FE4F6D8FD75810B02004CBE
:00000001FF
