:10004E001200031200427F01120026E508D394002D
:10005E0040F4D508F1E50BD3940040EAE4FFEFC37A
:10006E00950B500F740C2FF8E6FE744C2FF8A60665
:10007E000F80EBC29475CDC0784CE6F5CF750A01B2
:08008E00850B09E4F50B80BEAF
:0F0026007D2B7C06ED1D70011C144C70F7DFF173
:0100350022A8
:0700420075CEDE43AF022280
:03004B000200CBE5
:1000CB00C0E0C0D075D000C000C00775CDC0150909
:1000DB00E509D39400400DAF0A050A744C2FF8E6DE
:0F00EB00F5CF8002D294D007D000D0D0D0E03231
:100003004387807598505389BFE58954CF4420F5C1
:0B00130089758DFFD28ED2ACD2AF22D7
:0300230002009642
:10009600C0E0C0D075D000C000C007309819C29823
:1000A600E50BC394404003750B00AF0B050B740CB6
:1000B6002FF8A699750805309902C299D007D00085
:0500C600D0D0D0E032B3
:03000000020036C5
:0C003600787FE4F6D8FD75818B02004E47
:00000001FF
