:10004E0012000312003FE509650860FAC200742130
:10005E002508F8E6F5993000FDC2000508E508C34D
:09006E00944040E2E4F50880DD55
:100003004387807598505389BFE58954CF4420F5C1
:0B00130089758DFFD28ED2ACD2AF22D7
:03002300020026B2
:0D002600309802C298309904C299D200327D
:07003F0075CECE43AF022293
:03004B0002007739
:10007700C0E0C0D075D000C00074212509F8A6CF14
:1000870075CDC00509E509C394404003750900D043
:0600970000D0D0D0E032E1
:03000000020033C8
:0C003300787FE4F6D8FD75816002004E75
:00000001FF
