:10005D00120003E508650960FAC20074002508F571
:10006D0082E43400F583E0F5993000FDC200050807
:0C007D00E508C3948040DCE4F50880D75F
:10000300438780759850438E01438E04759C7043DB
:070013008E10D2ACD2AF2227
:03002300020026B2
:10002600C0E0C083C082C0D030981CC2987400253E
:1000360009F582E43400F583E599F00509E509C37D
:1000460094804003750900309904C299D200D0D03B
:07005600D082D083D0E0321C
:0300000002008972
:0C008900787FE4F6D8FD75812002005D50
:00000001FF
