:10034900B6C14944BACDC4DAB2BFD5F0B5B4C6B561
:10035900C2CA0D0A00B7A2B5A5B8F6D7D6B7FB270A
:100369006927A3ACBDABB7B5BBD8CEA8D2BB4944AE
:10037900BAC5A1A30D0A00B7A2B5A5B8F6D7D6B7D5
:10038900FB277227A3ACBDABB7B5BBD8C4DAB2BFE4
:10039900D5F0B5B4C6B5C2CAA1A30D0A00B1BE490C
:1003A90043B5C44944BAC5CEAAA3BA00C4DAB2BF98
:0D03B900D5F0B5B4C6B5C2CACEAAA3BA002D
:100026007519F1E4F518A819E6FF740D2518F8A658
:100036000705190518E518B407ECE4F50BF50AF5FC
:1000460009F5087519F8E519D394FB5033AF0BAED3
:100056000AAD09AC087808120336C004A905AA0639
:10006600AB07A819E6FFE4FCFDFED000EB2FF50B6D
:10007600EE3AF50AED39F509EC38F508051980C6AA
:10008600E4F517F516F515F5147519FCE519D3946D
:10009600004033AF17AE16AD15AC14780812033610
:1000A600C004A905AA06AB07A819E6FFE4FCFDFEF5
:1000B600D000EB2FF517EE3AF516ED39F515EC38BD
:1000C600F514051980C61200037E037F491203ED5D
:1000D6007E037F5E1203ED7E037F801203EDE4FF55
:1000E600FE0FBF00010EBE05F8BFDCF5E50C60EEA5
:1000F600646970417E037FA61203EDE4F518740D62
:100106002518F8E6C4540FFF1203DB1203D1740D51
:100116002518F8E6540FFF1203DB1203D17F2012D5
:1001260003D10518E518C3940740D37F0D1203D1F8
:100136007F0A1203D1E50C647260030202627E0339
:100146007FB51203ED7B807A9679987800AF0BAE77
:100156000AAD09AC081203CA7B807A9679987800B2
:10016600AF0BAE0AAD09AC081202A4AC00AD01AEED
:1001760002AF037B407A42790F78001203CA7F2EC2
:100186001203D17B407A42790F7800AF0BAE0AADED
:1001960009AC081202A4AC00AD01AE02AF037BA00D
:1001A6007A86790178001203CA7BA07A867901786B
:1001B60000AF0BAE0AAD09AC081202A4AC00AD014B
:1001C600AE02AF03E47B107A271203C8E47B107AF1
:1001D60027F9F8AF0BAE0AAD09AC081202A4AC00C1
:1001E600AD01AE02AF03E47BE87A031203C8E47BF9
:1001F600E87A03F9F8AF0BAE0AAD09AC081202A40F
:10020600AC00AD01AE02AF037B641203C6E47B64AF
:10021600FAF9F8AF0BAE0AAD09AC081202A4AC00AD
:10022600AD01AE02AF037B0A1203C6E47B0AFAF9FC
:10023600F8AF0BAE0AAD09AC081202A4EB2430FFEE
:100246001203D17F4D1203D17F481203D17F5A1278
:1002560003D17F0D1203D17F0A1203D1E4F50C02FC
:0202660000E4B2
:1003DB0053070FEFD39409EF50042430FF22243737
:0203EB00FF22EF
:0B03C600E4FAF9F81202A4EF2430FF63
:0A03D100C2008F993000FDC2002227
:1003ED008F828E83E493FF60061203D1A380F522E2
:100003004387807598505389BFE58954CF4420F5C1
:0B00130089758DF4D28ED2ACD2AF22E2
:030023000203FDD8
:1003FD00309805C29885990C309904C299D2003273
:0300000002040DEA
:0C040D00787FE4F6D8FD758120020026FF
:1002680075F008758200EF2FFFEE33FECD33CDCC4D
:1002780033CCC58233C5829BED9AEC99E5829840D0
:100288000CF582EE9BFEED9AFDEC99FC0FD5F0D6AD
:10029800E4CEFBE4CDFAE4CCF9A88222B800C1B9D7
:1002A8000059BA002DEC8BF084CFCECDFCE5F0CB15
:1002B800F97818EF2FFFEE33FEED33FDEC33FCEB4E
:1002C80033FB10D703994004EB99FB0FD8E5E4F909
:1002D800FA227818EF2FFFEE33FEED33FDEC33FCF6
:1002E800C933C910D7059BE99A4007EC9BFCE99AEA
:1002F800F90FD8E0E4C9FAE4CCFB2275F010EF2F2F
:10030800FFEE33FEED33FDCC33CCC833C810D7072E
:100318009BEC9AE899400AED9BFDEC9AFCE899F869
:0E0328000FD5F0DAE4CDFBE4CCFAE4C8F922FC
:10033600E8600FEFC333FFEE33FEED33FDEC33FC25
:03034600D8F122C9
:00000001FF
