:100195002A2A2A2A2A2A2053544331324335413602
:1001A500305332CFB5C1D0414443B3CCD0F2203225
:1001B5003031312D30322D3237202A2A2A2A2A2A67
:0301C5000D0A0020
:10002E007E017F95120013759D0175BCA0D2ADD2D5
:10003E00AF7FFA1200037FFA1200037FFA12000359
:10004E007FFA120003E4F5BDF5BEC200E5BC54E034
:10005E004408F5BC3000FD85080A85090B7F411266
:10006E00016F7F4412016F7F3012016F7F3D1201CD
:10007E006FAE0AAF0B7C037DE8120168AE0AAF0BC0
:10008E007C037DE81200C97F64120160AE0AAF0BDB
:10009E007C007D641200C97F0A120160AE0AAF0BAC
:1000AE007C007D0A1200C9ED2430FF12016F7F0D16
:0B00BE0012016F7F0A12016F02003F69
:03002B0002011EB1
:10011E00C0E0C0D075D000C000C005C006C00753F7
:10012E00BCEFAFBD7508008F09E509AE087802C3B4
:10013E0033CE33CED8F9FFE5BE5403FDEEF508EF0E
:10014E004DF509D200D007D006D005D000D0D0D0C2
:02015E00E0328D
:0F0003007D2B7C06ED1D70011C144C70F7DFF196
:0100120022CB
:0D01C8007FA37E00EF1F70011E144E70F724
:0101D5002207
:0F0160007E00CFCDCFCECCCE1200C9EF2430FF22
:02016F00AD07DA
:10017100C2B11201C8E4FCED30E004D2B18002C288
:10018100B1EDC313FD1201C80CBC08EBD2B11201D1
:04019100C80201C8D7
:100013008F828E83E493FF600612016FA380F52223
:030000000201D624
:0C01D600787FE4F6D8FD75812002002E31
:1000C900BC000BBE0029EF8DF084FFADF022E4CC1B
:1000D900F875F008EF2FFFEE33FEEC33FCEE9DECE4
:1000E900984005FCEE9DFE0FD5F0E9E4CEFD22ED2A
:1000F900F8F5F0EE8420D21CFEADF075F008EF2F74
:10010900FFED33FD4007985006D5F0F222C398FD64
:050119000FD5F0EA2201
:00000001FF
