:1000BB002A2A2A2A2A2A20535443313243353230F2
:1000CB00344144CFB5C1D0414443B3CCD0F22032FC
:1000DB003031312D30322D3237202A2A2A2A2A2A42
:0300EB000D0A00FB
:100072008F0A8D0B7F411200F27F441200F2E50AD3
:100082002430FF1200F27F3D1200F2E50B75F0649E
:100092001200EEE50B75F06484E5F075F00A1200CB
:1000A200EEE50B75F00A84E5F02430FF1200F27FD2
:0900B2000D1200F27F0A0200F2B7
:100003007E007FBB12014E759DC175BCA07FFA12A5
:10001300013E7FFA12013E7FFA12013E7FFA12017E
:100023003EE4FF12011CE4FF12011C7508008F0956
:10003300AD09E4FF1200727F0612011C7F06120154
:100043001C7508008F09AD097F061200727F071225
:10005300011C7F0712011C7508008F09AD097F077A
:0F0063001200727F0D1200F27F0A1200F2809ECF
:10011C00E4F5BDE5BC54E044084FF5BCE4FFE5BC98
:10012C0030E40653BCEFAFBD220FBFFAF1DFFE7F08
:01013C0000C2
:01013D00229F
:0F013E007D2B7C06ED1D70011C144C70F7DFF15A
:01014D00228F
:0D015E007FA37E00EF1F70011E144E70F78E
:01016B002271
:0400EE00842430FF37
:0200F200AD0758
:1000F400C2AFC2B112015EE4FCED30E004D2B180C3
:1001040002C2B1EDC313FD12015E0CBC08EBD2B107
:08011400D2AF12015E02015E90
:10014E008F828E83E493FF60061200F2A380F52265
:0300000002016C8E
:0C016C00787FE4F6D8FD75810B020003DB
:00000001FF
