:0A00B900C2008F993000FDC2002242
:10005D0012000E120087E508650960FA7400250884
:10006D00F582E43400F583E0FF1200B90508E508D8
:0A007D00C3948040E1E4F50880DC44
:10000E00E58954FC4401F589758CDCE4F58AD2A9A6
:05001E00D28CD2AF22DC
:03000B000200A050
:0D00A000C28C758CDC758A00D28CB2903257
:100087004387807598505389BFE58954CF4420F53D
:0900970089758DFAD28ED2AC22DB
:03002300020026B2
:10002600C0E0C083C082C0D030981CC2987400253E
:1000360009F582E43400F583E599F00509E509C37D
:1000460094804003750900309904C299D200D0D03B
:07005600D082D083D0E0321C
:030000000200AD4E
:0C00AD00787FE4F6D8FD75812002005D2C
:00000001FF
