:10004A00B1F0C8CBD0A6CED2CCABB7E8F1B2A3AC54
:10005A0000CED2D0A6CBFBC8CBBFB4B2BBB4A9A149
:10006A00A300B2BBBCFBCEE5C1EABAC0BDDCC4B9D1
:10007A00A3AC00CEDEBBA8CEDEBEC6B3FAD7F7CCA1
:04008A00EFA1A3003F
:1000030012008E1201647F647E001200B27F8012A0
:1000130001787BFF7A00794A12014E7F90120178B2
:100023007BFF7A00795B12014E7F881201787BFF98
:100033007A00796C12014E7F981201787BFF7A0067
:07004300797D12014E80FEE1
:1000B200E4FDFCC3ED9FEC9E5015E4FBFA0BBB0084
:0F00C200010AEB647B4A70F50DBD00010C80E470
:0100D100220C
:1000D2007580FFC2A5D2A6D2A7E5805480640160D4
:0900E200F8C2A7E4FF0FBF05FC02
:0100EB0022F2
:10011E00AE071200D2C2A5C2A68E80D2A7000000E2
:08012E000000000000C2A7223E
:10017800C2A5C2A68F80D2A7000000000000000020
:03018800C2A722E9
:10013600AE071200D2D2A5C2A68E80D2A7000000BA
:080146000000000000C2A72226
:10014E00120105FFD39400400C120136740129F9F7
:06015E00E43AFA80EB22F6
:0700EC007F301201787F0A4A
:1000F300AD071FED600BE4FEEEC3947D50F20E805E
:01010300F704
:0101040022D8
:10008E007F641200F31200EC1200EC7F0C1200EEF3
:10009E007F011201787F1E1200F37F061201787F16
:0400AE001E0200F33B
:100164007F3012011E7F0A1200F37F3012011E7FBE
:040174000A0200F388
:0300000002018B6F
:0C018B00787FE4F6D8FD758107020003C0
:10010500BB010689828A83E0225002E722BBFE02F8
:09011500E32289828A83E493222B
:00000001FF
