:1000F0002A2A2A205354433131467878CFB5C1D0CB
:1001000035B8F6BBBDD0D1D4B4B2E2CAD4B3CCD0EA
:10011000F2202A2A2A0D0A00CDE2D6D0B6CF494EC7
:100120005430BBBDD0D10D0A00CDE2D6D0B6CF49F8
:100130004E5431BBBDD0D10D0A00CDE2B2BF543018
:10014000BBBDD0D10D0A00CDE2B2BF5431BBBDD092
:10015000D10D0A00525844BBBDD0D10D0A00B4CE17
:07016000BBBDD0D10D0A0068
:100026007F0212018B7E007FF012019BD2B4D2B503
:10003600D2B2D2B3D2B0438F10438F20438F40D277
:1000460088D2A8D28AD2AAD2A9D2ABD2ACD2AF30A9
:10005600B4FD30B5FD30B2FD30B3FD30B0FDC28F1A
:10006600C28DC28BC289C299C2987F3212018BE4BB
:10007600F508000000438702000000E508B4010708
:100086007E017F1812019BE508B402077E017F29D5
:1000960012019BE508B403077E017F3A12019BE536
:1000A60008B404077E017F4712019BE508B40507E3
:1000B6007E017F5412019BE4F5080509E50975F0F8
:1000C60064120167E50975F06484E5F075F00A12BB
:1000D6000167E50975F00A84E5F02430FF12016B2B
:0A00E6007E017F5E12019B020032D2
:03000300020006F2
:040006007508013246
:03000B0002000EE2
:04000E00750803323C
:03001300020016D2
:040016007508023235
:03001B0002001EC2
:04001E00750804322B
:030023000201C512
:0801C500C298C29975080532C9
:0F018B007D2B7C06ED1D70011C144C70F7DFF10D
:01019A002242
:0D01AB007FA37E00EF1F70011E144E70F741
:0101B8002224
:04016700842430FFBD
:02016B00AD07DE
:10016D00C2AFC2B11201AB7C08EDC313FD92B11247
:0E017D0001ABDCF5D2B1D2AF1201AB0201AB87
:10019B008F828E83E493FF600612016BA380F5229E
:030000000201B941
:0C01B900787FE4F6D8FD7581090200266D
:00000001FF
