:10001600D200750D0A750ECD750924750A001201F8
:0700260028D28AD2AA80FE55
:100128005391F8439207E4F5D843B780D2BE75D906
:100138000175DA4975DB49F5E9F5F9F50F751064CC
:0A014800F511751264D2AFD2DE2269
:03003B0002003E82
:10003E00C0E0C0D030D817B290C2D8E50A2510F56E
:10004E0010E509350FF50F8510EAE50FF5FA30D9F1
:10005E006DC2D9300066300163E5087012D2937418
:10006E002E2512F512E43511F5117508018044E5BF
:10007E0008B40113C29374D22512F51274233511EC
:10008E00F511750802802CE508B40212D293742E75
:10009E002512F512E43511F5117508038015E508E2
:1000AE00B40310C29374D22512F51274233511F5D0
:1000BE0011C2018512EBE511F5FB8002C29330DF10
:0A00CE0004B291C2DFD0D0D0E032BE
:030013000200D810
:0F00D800C0E0C0D075D000C004C005C006C0078E
:1000E700AFF9ADE9EF65F960010F7511008F12E502
:1000F70012FE7C00E42DF512EC3EF511E50E2512FB
:10010700F512E50D3511F5118512EBE511F5FB75C6
:040117000800D20109
:0D011B00D007D006D005D004D0D0D0E032FF
:03000000020003F8
:0C000300787FE4F6D8FD7581200200161D
:00000001FF
