:10007B00D3EF94E0EE940F40047E0F7FE0C3EF9438
:10008B0020EE940050047E007F20C2DE8E0A8F0B80
:0D009B00C3E49FF50974109EF508D2DE2223
:1000A8005391F7439208E4F5D843B780D2BF75D986
:1000B8000875DA4DF5E9F5F9F50CF50D12007BD266
:0400C800DED2AF22B3
:03003B00020003BD
:10000300C0E0C0D030D822C2D830930AE50B250D0A
:10001300F50DE50A8008E509250DF50DE508350C14
:0E002300F50C850DEAE50CF5FAD0D0D0E032F0
:10003E00750E03750FE8750E00750F20AF0FAE0E1F
:10004E001200A87F0A1200CC740A250FF50FE435B2
:10005E000EF50EC3E50F94E0E50E940F4006750EF7
:0D006E0000750F20AF0FAE0E12007B80D684
:0F00CC007DDB7C06ED1D70011C144C70F7DFF11D
:0100DB002202
:030000000200DC1F
:0C00DC00787FE4F6D8FD75810F02003E2D
:00000001FF
