:100153002A2A2A2A2A2A2053544331324335413644
:10016300305332CFB5C1D0414443B3CCD0F2203267
:100173003031312D30322D3237202A2A2A2A2A2AA9
:030183000D0A0062
:100003007E017F53120196759D0175BCA07FFA1284
:1000130001867FFA1201867FFA1201867FFA1201A6
:1000230086E4FF1200E08E088F097F411201297FC9
:10003300441201297F301201297F3D120129AE08A4
:10004300AF097C037DE8120122AE08AF097C037D72
:10005300E812008B7F6412011AAE08AF097C007DA1
:100063006412008B7F0A12011AAE08AF097C007D6F
:100073000A12008BED2430FF1201297F0D12012992
:080083007F0A1201290200109E
:1000E000E4F5BDF5BEE5BC54E044084FF5BC7FFA2D
:1000F000E5BC30E41E53BCEFAEBDEEFD7C007E00DF
:100100007802C333CE33CED8F9FFE5BE5403FDEFFA
:090110004DFF22DFDB7E047F00BD
:0101190022C3
:0F0186007D2B7C06ED1D70011C144C70F7DFF112
:010195002247
:0D01A6007FA37E00EF1F70011E144E70F746
:0101B3002229
:0F011A007E00CFCDCFCECCCE12008BEF2430FFA6
:02012900AD0720
:10012B00C2AFC2B11201A6E4FCED30E004D2B18043
:10013B0002C2B1EDC313FD1201A60CBC08EBD2B188
:08014B00D2AF1201A60201A6C9
:100196008F828E83E493FF6006120129A380F522E5
:030000000201B446
:0C01B400787FE4F6D8FD75810902000395
:10008B00BC000BBE0029EF8DF084FFADF022E4CC59
:10009B00F875F008EF2FFFEE33FEEC33FCEE9DEC22
:1000AB00984005FCEE9DFE0FD5F0E9E4CEFD22ED68
:1000BB00F8F5F0EE8420D21CFEADF075F008EF2FB2
:1000CB00FFED33FD4007985006D5F0F222C398FDA3
:0500DB000FD5F0EA2240
:00000001FF
